:020000040800F2
:100000005004002005010008E10900089F090008CC
:10001000DD090008B5060008A71F00080000000061
:100020000000000000000000000000002D16000885
:10003000F907000800000000730A000861190008B1
:100040001F0100081F0100081F0100081F01000810
:100050001F0100081F0100081F0100081F01000800
:100060001F0100081F0100081F0100081F010008F0
:100070001F0100081F0100081F0100081F010008E0
:100080001F0100081F0100081F0100081F010008D0
:100090001F0100081F0100081F0100081F010008C0
:1000A0001F0100081F0100081F0100081F010008B0
:1000B0001F0100081F0100081F0100081F010008A0
:1000C0001F0100081F0100081F0100081F01000890
:1000D0001F0100081F0100081F010008911D0008F2
:1000E0001F0100081F0100081F010008DFF810D0E1
:1000F00000F0AAFA0048004711200008AFF3008082
:10010000500400200648804706480047FEE7FEE707
:10011000FEE7FEE7FEE7FEE7FEE7FEE7FEE7FEE7B7
:1001200065190008ED000008F0B480EA0102D40F60
:100130004200B2EB410F02D20246084611464A0085
:1001400042D0C30DDDB2C1F3C752AD1A202D35DA4E
:10015000C1F3160141F4000204B15242C5F1200678
:1001600002FA06F12A411044B3EBD05F23D0C4B1A8
:10017000012DA0EBC35009DCF0BC4FF0004202EAB5
:10018000C352DBB200F5000000F0D3B9400000F12B
:10019000807000EBC350A0F1807040EAD17049003C
:1001A00009E0490841EAC071A0EBC35000F5000026
:1001B000400800EBC350F0BC00F0B2B9614201222C
:1001C00002EB4101001BF6E7F0BC704781F00041F3
:1001D000AAE780F00040A7E780EA010210B502F02C
:1001E0000043400022D04A001FD0010E01EB1261F3
:1001F000C0F35600C2F3560240F4000042F400027D
:10020000A0FB022000047F39140400D0401C50EAF7
:10021000124001D44000491EC2B20C0604EBD010BB
:10022000401C4008802A02D003E0002010BD20F0CE
:100230000100002900DA0020184310BD30B480EA24
:10024000010202F0004530F0004221F0004013D0DE
:1002500090B1C30DD40DC2F31601C0F31600E41A19
:1002600041F4000140F400027D34914201D3641C4A
:1002700000E04900002C02DA30BC002070474FF447
:1002800000000023914201D3891A034340084FEA3A
:100290004101F7D151B1914202D14FF0004105E047
:1002A00002D24FF0010101E06FF0010103EBC450F5
:1002B000284430BC00F034B92DE9FE4F81EA030434
:1002C00004F0004421F0004100944FF0000B23F0B3
:1002D000004350EA01045ED052EA03045BD0C3F34A
:1002E0000A54C1F30A552C44A4F2F3340194A0FB40
:1002F0000254C1F3130141F48011C3F3130343F417
:10030000801301FB024400FB034E840A970A44EA6F
:10031000815447EA8357A4FB076802958D0A05FBC1
:1003200007854FEA932C04FB0C542705029D4FEAE6
:10033000065847EA1637B5EB08056EEB070C870E33
:10034000920E47EA811742EA8312A7FB0201B6EB3D
:100350000B0164EB00042B0D43EA0C335E1844EBF5
:100360001C50DA465146E7FB0201C5F313044FEA7D
:100370000B3343EA14534FEA0432019C43EA060369
:10038000A4F10C040294009CCDE900B400F00EF935
:1003900003B0BDE8F08F00200146F9E72DE9F04DEC
:1003A00081EA030404F0004B21F0004514464FF0AD
:1003B000000A23F0004150EA050220D054EA01026D
:1003C0001DD0C5F30A570246C5F31303C1F313004A
:1003D000C1F30A5640F4801543F48013A7EB0608D6
:1003E000101BD64608F2FD3873EB050002D308F166
:1003F000010801E092185B41B8F1000F03DA002018
:100400000146BDE8F08D00204FF480110646844679
:100410000EE0171B73EB050705D3121B63EB0503F7
:1004200006434CEA010C49084FEA300092185B4140
:1004300050EA0107EDD152EA030012D082EA04002B
:1004400083EA0501084305D0101BAB4106D2012207
:10045000002306E000224FF0004302E06FF00102AB
:1004600053101AEB06004CEB085110EB0A0041EB5D
:100470000B01BDE8F04D00F08AB89623002211462A
:1004800000F057B80EB5C10F80EAE0700844CA0703
:10049000002140F233438DE80E000A460B4600F07F
:1004A00085F803B000BD20F00040C10DC0F3160078
:1004B00040F400007F2901DA00207047962903DC10
:1004C000C1F19601C8407047963988407047C1F322
:1004D0000A5210B5C1F3130140F2FF3341F4801109
:1004E0009A4201DA002010BD40F233439A42A2F250
:1004F000334203DC524200F003F810BD904010BDBF
:10050000202A04DB203A21FA02F00021704721FA68
:1005100002F3D040C2F120029140084319467047CF
:100520000029A8BF7047401C490008BF20F0010007
:10053000704710B4B0FA80FC00FA0CF050EA0104E5
:1005400004BF10BC704749B1CCF1200421FA04F477
:1005500011FA0CF118BF012121430843A3EB0C0150
:10056000CB1D4FEA00614FEA102042BF002010BCB3
:10057000704700EBC35010440029A4BF10BC704763
:10058000401C490008BF20F0010010BC704710B5A6
:10059000141E73F1000408DA401C41F100019218A6
:1005A0005B411A4301D120F0010010BD2DE9F04D4F
:1005B00092469B4611B1B1FA81F202E0B0FA80F2A4
:1005C0002032904600F052F804460F4640EA0A00F6
:1005D00041EA0B0153465A46084313D0114653EAE9
:1005E000010019D0C8F140025046FFF789FF0546C7
:1005F0000E4650465946424600F038F8084305D0AA
:10060000012004E020463946BDE8F08D0020054376
:1006100046EAE0762C4337430A986305E40AA0EBE8
:1006200008000022FD0A44EA47540A3002D500209F
:100630000146E9E7010510196941DDE9084500199E
:100640006941BDE8F04DA2E7064C074D06E0E068C1
:1006500040F0010394E8070098471034AC42F6D309
:10066000FFF748FD5820000878200008202A04DB06
:10067000203A00FA02F1002070479140C2F12003B5
:1006800020FA03F3194390407047000010B5002191
:10069000074801F022FB0021054801F020FB002162
:1006A000034801F01EFB0021014801F01CFB10BDB6
:1006B000002C014000BFFEE700B589B001210420F5
:1006C00000F09CFA0121C80200F098FA18208DF879
:1006D000230003208DF822004FF47060ADF8200055
:1006E00008A92D4800F0CEF80020ADF81A00ADF8AA
:1006F000160044F61F60ADF818004720ADF814004E
:1007000000208DF81C0005A9244801F0EFFA2348C9
:1007100001F082F96020ADF804000020ADF80C0073
:100720000120ADF806000002ADF810000020ADF881
:1007300012000820ADF80E000020ADF80800ADF85A
:100740000A0001A9154801F06DF901A9134801F04B
:10075000BFF901A9114801F01BFA01A90F4801F0E6
:1007600071FA08210D4801F0A9F908210B4801F0A0
:1007700001FA0821094801F05BFA0821074801F055
:100780009FFA0121054801F02CF90121034801F0ED
:1007900034F909B000BD000000080140002C014000
:1007A00021B1026842F00102026004E002684FF6E3
:1007B000FE731A400260704710B50022026847F6C7
:1007C000F0739A430C6A8B6823430C6923434C698A
:1007D00023438C692343CC6923434C6A23438C6AAB
:1007E00023431A430260CB6843600B6883604B6805
:1007F000C36010BD416070477047000000B585B010
:100800000121082000F0FAF90121880400F0E6F93E
:1008100004208DF803004002ADF8000003208DF89D
:1008200002006946144800F02DF814480190002099
:10083000ADF810000420ADF80E000002ADF80C0079
:100840000120ADF80A000020ADF8080001A90C480D
:1008500001F038FB012240F22441094801F00CFB71
:100860000121074801F0C9FA01224021044801F0A2
:10087000D0FA05B000BD0000000C0140A0860100C8
:10088000004800402DE9F0410246002500260020E6
:1008900000230024002791F803C00CF00F0591F805
:1008A00003C00CF0100CBCF1000F03D091F802C093
:1008B0004CEA050591F800C0BCF1000F31D0146876
:1008C00000202BE04FF0010C0CFA00F3B1F800C04F
:1008D0000CEA03069E4220D183004FF00F0C0CFA65
:1008E00003F7BC4305FA03FC4CEA040491F803C087
:1008F000BCF1280F06D14FF0010C0CFA00FCC2F835
:1009000014C00AE091F803C0BCF1480F05D14FF0C4
:10091000010C0CFA00FCC2F810C0401C0828D1D30E
:100920001460B1F800C0BCF1FF0F34DD5468002042
:100930002EE000F1080C4FF0010808FA0CF3B1F8B2
:1009400000C00CEA03069E4221D183004FF00F0C39
:100950000CFA03F7BC4305FA03FC4CEA040491F8D3
:1009600003C0BCF1280F05D100F1080C08FA0CF8FF
:10097000C2F8148091F803C0BCF1480F07D100F110
:10098000080C4FF0010808FA0CF8C2F81080401C5F
:100990000828CED35460BDE8F0814161704700BFA4
:1009A000FEE7000010B504462146044801F099F91D
:1009B0000021024801F097F910BD0000002C014011
:1009C00010B504460021044801F08BF92146024885
:1009D00001F089F910BD0000002C014000BFFEE7C6
:1009E0007047000070B5002100230F22C47804B3C3
:1009F000154C246804F4E064C4F5E064210AC1F1F4
:100A00000403CA40447804FA03F184781440214373
:100A100009010E4C0678A155047804F01F05012445
:100A2000AC4005786D11AD0005F1E025C5F8004139
:100A300009E0047804F01F050124AC40044D067859
:100A4000761145F8264070BD0CED00E000E400E0B2
:100A500080E100E008B527208DF8000001208DF826
:100A600003008DF801008DF802006846FFF7BAFF19
:100A700008BD704700B589B00121022000F0AEF832
:100A80000121042000F0BAF80121082000F0B6F896
:100A900018208DF823008020ADF8200003208DF869
:100AA000220008A92048FFF7EDFE18208DF823004A
:100AB0000120ADF8200003208DF8220008A91B4872
:100AC000FFF7E0FE1A4800F0A7FF0020ADF81A007B
:100AD000ADF8160044F61F60ADF818004720ADF8D9
:100AE000140005A9124801F001F96020ADF80400D6
:100AF0000020ADF80C000120ADF8060001A90C485B
:100B000000F090FF01A90A4801F042F808210848C6
:100B100000F0D4FF0821064801F08AF801210448BA
:100B200000F05FFF09B000BD00080140000C01406B
:100B30000004004010B5044644F62060844202DC04
:100B40004010844200DA10BD002211460C4800F02B
:100B500039FF40210B48FFF720FF4FF4FA7001F0F6
:100B600033FA01220821064800F02CFF0021044836
:100B700001F0B3F82146024801F0B3F800BFE2E704
:100B8000000400400008014010B50022114608484A
:100B900000F018FF00220821054800F013FF402153
:100BA0000448FFF7FAFE01210348FFF7F6FE10BDE7
:100BB0000004004000080140000C014029B1064A31
:100BC00052690243044B5A6104E0034A526982436A
:100BD000014B5A61704700000010024029B1064ADB
:100BE000D2690243044BDA6104E0034AD2698243CA
:100BF000014BDA61704700000010024029B1064A3B
:100C000092690243044B9A6104E0034A9269824369
:100C1000014B9A61704700000010024030B500217E
:100C20000022002400232D4D6D6805F00C0121B138
:100C3000042905D0082923D105E0294D056022E0CB
:100C4000274D05601FE0254D6D6805F47012234D9A
:100C50006D6805F48034022505EB92421CB9214DE4
:100C6000554305600BE01D4D6D6805F400351DB161
:100C70001C4D5543056002E0194D5543056002E0E7
:100C8000174D056000BF00BF144D6D6805F0F00101
:100C90000909154D6B5C0568DD4045600F4D6D68B9
:100CA00005F4E061090A104D6B5C4568DD40856024
:100CB0000A4D6D6805F46051C90A0B4D6B5C4568BF
:100CC000DD40C560054D6D6805F44041890B074D59
:100CD0006B5CC568B5FBF3F5056130BD00100240E3
:100CE00000127A0000093D001200002022000020BE
:100CF0002DE9F04F8DB0FA48B0F90A90B0F90CA088
:100D00000024007A03287CD1F548407A0328FAD1E0
:100D1000B9F1000F03DAC9F100000FFA80F9BAF156
:100D2000000F03DACAF100000FFA80FAEC48807C69
:100D3000C0F3400040B144F61F60FFF741FE44F6A7
:100D40001F6000F0F9FB0FE0E548807C00F0010037
:100D500040B144F61F60FFF725FE44F61F6000F027
:100D6000DDFB01E0FFF792FCDD48807CC0F38000F2
:100D700018B1002000F05CFC0DE0D948807CC0F385
:100D8000C00018B1B42000F053FC04E0D549098834
:100D900088B200F04DFCD248807CC0F38010C0B116
:100DA000D148B0F90000002813DBCF48B0F90000AB
:100DB00064280EDACC480088401C00B2CA4908807A
:100DC000098888B200F03EFCC749098888B200F063
:100DD00059FCC348807CC0F3C010D0B1C248B0F900
:100DE0000000002815DDC048B0F90000642810DCC0
:100DF000BD480088401E00B2BB490880098888B2FF
:100E000000E025E100F01EFCB749098888B200F037
:100E100039FCB348B0F90A00002841DDB348B0F905
:100E20000000FFF72FFBCDE902014846FFF72AFB40
:100E3000CDE90001DDE90223FFF7B0FA0746884655
:100E4000AB48B0F90000FFF71DFB3A464346CDE939
:100E50000001FFF731FACDE90201FFF738FB84B258
:100E6000A448B0F90000001B1E2819DDA148B0F904
:100E70000000001B8C2813DC4FF0000B0EE09D4897
:100E80000088401E00B29B490880098888B200F0A3
:100E90008DFC012001F098F80BF1010BA345EEDB6E
:100EA0008F48B0F90A00002841DA9048B0F90000F4
:100EB000FFF7E8FACDE902014846FFF7E3FACDE98A
:100EC0000001DDE90223FFF769FACDE9080188484E
:100ED000B0F90000FFF7D6FACDE90001DDE90823FB
:100EE000FFF7EAF9CDE90201FFF7F1FA84B2814890
:100EF000B0F9000020441E2819DB7E48B0F900003C
:100F000020448C2813DA4FF0000B0EE0794800885B
:100F1000401C00B277490880098888B200F046FC7E
:100F2000012001F051F80BF1010BA345EEDB6C48F9
:100F3000B0F90C00002841DD6F48B0F90000FFF760
:100F4000A1FACDE902015046FFF79CFACDE9000174
:100F5000DDE90223FFF722FACDE906016748B0F97F
:100F60000000FFF78FFACDE90001DDE90623FFF766
:100F7000A3F9CDE90201FFF7AAFA84B26048B0F9FB
:100F8000000020445E2819DD5D48B0F900002044CF
:100F9000982813DC4FF0000B0EE059480088401CE5
:100FA00000B257490880098888B200F009FC012086
:100FB00001F00AF80BF1010BA345EEDB4848B0F94C
:100FC0000C00002841DA4C48B0F90000FFF75AFA4B
:100FD000CDE902015046FFF755FACDE90001DDE900
:100FE0000223FFF7DBF9CDE904014448B0F9000022
:100FF000FFF748FACDE90001DDE90423FFF75CF9CA
:10100000CDE90201FFF763FA84B23D48B0F9000070
:10101000001B5E2819DB3A48B0F90000001B982835
:1010200013DA4FF0000B0EE035480088401E00B286
:1010300033490880098888B200F0C2FB012000F023
:10104000C3FF0BF1010BA345EEDB0DB0BDE8F08F44
:101050002348407A032855D12148007A022851D1EB
:101060001F48C088A0F58060002818DD1E48B0F930
:101070000000002813DB1C48B0F9000064280EDAD9
:1010800019480088401C00B217490880098888B2B6
:1010900000F0D8FA1449098888B200F0F3FA104831
:1010A000C088A0F58060002818D50F48B0F900006E
:1010B000002813DD0C48B0F9000064280EDC0A4853
:1010C0000088401E00B208490880098888B200F0F4
:1010D000B9FA0549098888B200F0D4FAB5E70000EA
:1010E0002800002000000020060000200E00002044
:1010F0000A00002004000020100000200C00002046
:1011000002000020B148007A032838D1AF48407A65
:10111000012834D1AD488088A0F58060002813DD17
:10112000AB48B0F90000B4280EDAA948B0F90000C5
:10113000002809DBA6480088401C00B2A4490880AA
:10114000098888B200F074FAA0488088C0F58060F1
:10115000002813DD9E48B0F90000B4280EDC9C483E
:10116000B0F90000002809DD99480088401E00B24F
:1011700097490880098888B200F05AFA65E79348D1
:10118000007A01287ED19148407A0128FAD1FFF7F0
:10119000FBFC8E48C088B0F5806F3BD08B48C08880
:1011A000A0F5806000281ADD8848C088A0F580601E
:1011B00086B23046FFF761F986490290FFF73EF8A4
:1011C00083468549FFF708F80390FFF76CF985B26D
:1011D0002846FFF7E7FB284600F0A0F91CE07B4813
:1011E000C088C0F5806086B23046FFF746F979497D
:1011F0000290FFF723F883467749FEF7EDFF03904F
:10120000FFF751F985B22846FFF7DAFB284600F0D0
:1012100093F901E0FFF73AFA6C488088B0F5806FE7
:1012200043D06A488088A0F58060002819DD6748AF
:101230008088A0F5806080B20A900A98FFF71DF9B7
:1012400064490290FEF7FAFF83466449FEF7C4FF43
:101250000390FFF728F95A3080B20B900B9800F0FA
:10126000E7F95A488088C0F58060002822DD574899
:101270008088C0F5806080B20A900A98FFF7FDF878
:10128000544900E08EE00290FEF7D8FF83465349B0
:10129000FEF7A2FF0390FFF706F9C0F15A0080B2F3
:1012A0000B900B9800F0C4F904E04949098888B212
:1012B00000F0BEF945480088B0F5806F34D043484F
:1012C0000088A0F58060002813DD4548B0F90000D3
:1012D0001E280EDD4248B0F900008C2809DC404889
:1012E0000088401E00B23E490880098888B200F09C
:1012F0005DFA36480088C0F58060002819DD38485E
:10130000B0F900001E2814DB3548B0F900008C2825
:101310000FDA33480088401C00B231490880098840
:1013200088B200F043FA04E02D49098888B200F041
:101330003DFA26484088B0F5806F34D02348408875
:10134000A0F58060002813DD2648B0F900005E2873
:101350000EDD2448B0F90000982809DC21480088F7
:10136000401E00B21F490880098888B200F028FAA0
:1013700016484088C0F58060002819DD1948B0F98A
:1013800000005E2814DB1748B0F9000098280FDA37
:1013900014480088401C00B212490880098888B2AD
:1013A00000F00EFA04E00F49098888B200F008FA4C
:1013B0000648007A022807D10448407A022803D15F
:1013C00044F62060FFF7B6FB00BF3EE62800002091
:1013D000000000200000254400409C460000B4426C
:1013E000040000200200002010B5FFF707FA00F00B
:1013F00069F8FFF72FFB10BD304800782F49497876
:1014000040EA0120C0F30A002D4908802B484078AB
:10141000C0102A49897840EA4110C0F30A002849DF
:1014200048802648807880112449C97840EA8100A4
:101430002249097940EA8120C0F30A0020498880C6
:101440001E48007940101D49497940EAC110C0F397
:101450000A001B49C88019484079001180080872A9
:1014600016484079C0F30110487214488079134936
:10147000C97940EA012000B2114948810F48007A39
:101480000E49497A40EA012001B20D4881810B489A
:10149000807A0A49C97A40EA012001B20848C1812C
:1014A0000648017B064801740448417B04484174A6
:1014B0000248807B02494882704700003C000020BF
:1014C0002800002000B58BB001210846FFF776FB0D
:1014D00013200390002002900A900D4801900020F4
:1014E000079080200590202008900A480090002056
:1014F000069004904FF44050099069460648FFF763
:101500005BF901210448FFF74BF90BB000BD000067
:101510003C000020044800403000024010B5044662
:101520000021044800F0D9FB2146024800F0D7FB17
:1015300010BD0000002C014010B5044621460448AF
:1015400000F0CBFB0021024800F0C9FB10BD0000F9
:10155000002C014010B54FF47A71C80600F0BFFBB3
:101560004FF47A71C80600F0BCFB10BD10B500F056
:1015700003F8FFF7EFFF10BD00B589B00121084661
:10158000FFF72CFB01210420FFF738FB18208DF812
:1015900023000220ADF8200003208DF8220008A9C6
:1015A0002148FFF76FF90420ADF8200008A91E4874
:1015B000FFF768F94FF0804000F02EFA0020ADF8F8
:1015C0001A00ADF8160044F61F60ADF81800472069
:1015D000ADF8140005A94FF0804000F087FB6020B3
:1015E000ADF804000020ADF80C000120ADF80600B5
:1015F0004FF4FA60ADF80A0001A9800600F068FA1D
:1016000001A94FF0804000F0C3FA0821C80600F09D
:10161000B1FA0821C80600F00BFB0121880700F091
:10162000E0F909B000BD000000080140704700006B
:1016300010B5044622460121014800F04DF910BDC5
:10164000000400402DE9F04104462046FEF715FF56
:1016500080460A49FEF7F2FD07460949FEF7BCFD40
:101660000646FEF720FF00F2E73085B229464FF02C
:10167000804000F034FBBDE8F08100000000C8426B
:1016800000007A442DE9F04104462046FEF7F5FEBD
:1016900080460A49FEF7D2FD07460949FEF79CFD40
:1016A0000646FEF700FF00F2E73085B229464FF00C
:1016B000804000F016FBBDE8F08100000000C84249
:1016C00000007A4410B500F001F810BD0CB5002000
:1016D000019000903348006840F480303149086040
:1016E00000BF3048006800F4003000900198401CB2
:1016F0000190009818B90198B0F5A06FF1D1294870
:10170000006800F4003010B10120009001E00020DA
:1017100000900098012843D12348006840F0100051
:10172000214908600846006820F003000860084668
:10173000006840F0020008601A4840681949486093
:101740000846406848600846406840F48060486049
:101750000846406820F47C1048600846406840F421
:10176000E81048600846006840F08070086000BFDC
:101770000C48006800F000700028F9D00948406863
:1017800020F00300074948600846406840F0020026
:10179000486000BF0348406800F00C000828F9D1F9
:1017A0000CBD0000001002400020024010B50446AD
:1017B00022460421014800F08FF810BD00040040CB
:1017C00010B5044622460121880700F085F810BDB7
:1017D00010B500F001F810BD00B589B0012102205C
:1017E000FFF7FCF901210846FFF7F8F90121042071
:1017F000FFF704FA01210820FFF700FA18208DF8FE
:1018000023004020ADF8200003208DF8220008A915
:101810002E48FFF737F80220ADF8200008A92C4821
:10182000FFF730F80120ADF8200008A92748FFF79E
:1018300029F8284800F0F0F84FF0804000F0ECF86C
:101840000020ADF81A00ADF8160044F61F60ADF8A0
:1018500018004720ADF8140005A91E4800F046FA0C
:1018600005A94FF0804000F041FA6020ADF8040077
:101870000020ADF80C000120ADF8060040F2F31096
:10188000ADF80A0001A9134800F0CCF801A91148ED
:1018900000F0D8F901A94FF0804000F0C3F808210A
:1018A0000C4800F00BF908210A4800F009FA082159
:1018B000C80600F003F90121064800F092F8012162
:1018C000880700F08EF809B000BD00000008014054
:1018D000000C0140000400402DE9F84F06460C467C
:1018E00015462846FEF7C9FD1A490090FEF7A6FCEA
:1018F00083461949FEF770FC82461849FEF714FC2E
:1019000081464FF07E51FEF761FC8046FEF7CBFD2D
:1019100087B2012C06D0022C09D0032C0CD0042C49
:1019200014D10EE03946304600F0D7F90EE03946C2
:10193000304600F0D4F909E03946304600F0D1F9DC
:1019400004E03946304600F0CEF900BF00BFBDE8E4
:10195000F88F0000000034430000FA440000FA430E
:101960007047000010B51348006840F001001149AD
:10197000086008464068104908400E49486008461B
:1019800000680E4908400B4908600846006820F4CA
:10199000802008600846406820F4FE0048604FF44C
:1019A0001F008860FFF78EFE4FF00060044908605A
:1019B00010BD0000001002400000FFF8FFFFF6FE1F
:1019C00008ED00E030B5002301248C40A3B2048C64
:1019D0009C430484048C02FA01F5ADB22C430484C8
:1019E00030BD21B1028842F00102028004E0028889
:1019F0004FF6FE731A400280704731B1B0F84420B0
:101A000042F40042A0F8442005E0B0F84420C2F3BC
:101A10000E02A0F84420704701894FF6F872114079
:101A20000181704770B5002400220023058C4FF619
:101A3000FE7635400584028C8388048B4FF68F75C3
:101A40002C40B51E2C400D882C43751E2A400D8954
:101A50002A434D882A43144DA8420BD0134DA84267
:101A600008D0134DA84205D0124DA84202D0124D05
:101A7000A84213D14FF6F7752A404D892A434FF6F5
:101A8000FB752A408D882A434FF6FF652B404FF6A1
:101A9000FF552B408D892B43CD892B4383800483B5
:101AA000CD888586028470BD002C01400034014041
:101AB0000040014000440140004801400A46002126
:101AC000018B4FF6F77319401143018370470000F3
:101AD00070B5002400220023058C4FF6EF763540C8
:101AE0000584028C8388048B48F6FF752C404FF6E2
:101AF000FF452C400D884FF6FF7606EA05252C435E
:101B00004FF6DF752A400D8906EA05152A434D88F0
:101B100006EA05152A43154DA84202D0144DA842E5
:101B20001DD14FF67F752A404D894FF6FF7606EAA4
:101B300005152A434FF6BF752A408D8806EA05151C
:101B40002A434FF6FF352B404FF2FF752B408D890E
:101B500006EA85052B43CD8906EA85052B4383805C
:101B60000483CD880587028470BD0000002C0140ED
:101B7000003401400A460021018B4FF2FF731940E7
:101B80004FF6FF7303EA02231943018370470000F5
:101B900070B5002400220023058C4FF6FF66354007
:101BA0000584028C8388848B4FF68F752C404FF60A
:101BB000FC752C400D882C434FF6FF552A400D89AB
:101BC0004FF6FF7606EA05252A434D8806EA0525E5
:101BD0002A43154DA84202D0144DA8421DD14FF200
:101BE000FF752A404D894FF6FF7606EA05252A4300
:101BF0004FF6FF352A408D8806EA05252A434EF622
:101C0000FF752B404DF6FF752B408D8906EA0515B3
:101C10002B43CD8906EA05152B4383808483CD8829
:101C20008587028470BD0000002C01400034014013
:101C30000A460021818B4FF6F773194011438183C7
:101C40007047000070B5002200230024058C4EF67A
:101C5000FF7635400584038C8488828B48F6FF75B7
:101C60002A404FF6FF452A400D884FF6FF7606EAD8
:101C700005252A434DF6FF752B400D8906EA0535EB
:101C80002B434D8806EA05352B430B4DA84202D065
:101C90000A4DA84208D14BF6FF752C408D894FF6AE
:101CA000FF7606EA85152C4384808283CD88A0F8D0
:101CB0004050038470BD0000002C014000340140FE
:101CC0000A460021818B4FF2FF7319404FF6FF73D4
:101CD00003EA022319438183704781867047018795
:101CE000704781877047A0F8401070470022028833
:101CF0001D4B98420ED01D4B98420BD0B0F1804F37
:101D000008D01B4B984205D01A4B984202D01A4B70
:101D1000984204D14FF68F731A404B881A43174BE1
:101D2000984207D0164B984204D04FF6FF431A4012
:101D3000CB881A4302808B8883850B8803850A4BE6
:101D400098420BD0094B984208D00E4B984205D0D0
:101D50000D4B984202D00D4B984201D10B7A03866D
:101D60000123838270470000002C014000340140B1
:101D70000004004000080040000C0040001000403B
:101D80000014004000400140004401400048014070
:101D900010B540F224410F4800F044F8012817D153
:101DA00000210D48FEF7FCFCFFF726FBFEF7A0FF25
:101DB00013210948FEF71EFD01210748FEF7F0FC3C
:101DC000044800F0EBF840F22441024800F006F825
:101DD00010BD0000004800403000024010B5002255
:101DE000002340F66A14A14200D100BF0A12012468
:101DF0009440A3B2DC43048010BD21B1828942F437
:101E00000052828104E082894DF6FF731A4082817C
:101E100070471AB1838A0B43838202E0838A8B4323
:101E20008382704770B502460024002300250020FD
:101E300040F66A16B14200D100BFC1F3421501F06D
:101E40001F03012606FA03F3012D02D196893340C0
:101E500006E0022D02D1168A334001E0968A334013
:101E60000C12012606FA04F41688344013B10CB1A2
:101E7000012000E0002070BDF0B5034600240026DC
:101E80000025002040F66A17B94200D100BF18466D
:101E9000C1F3421401F01F06012707FA06F5012CD1
:101EA00001D10C3004E0022C01D1103000E01430DC
:101EB0001AB107682F43076002E00768AF43076065
:101EC000F0BD00002DE9F04786B005460E4600241F
:101ED000A24600BFA1460027B08900B100BF2F462F
:101EE0002C8A4CF6FF700440F08804432C82AC89A5
:101EF0004EF6F3100440B0883189084371890843D5
:101F00000443AC81AC8A4FF6FF400440B0890443DF
:101F1000AC8201A8FEF782FE1F48874202D1DDF89D
:101F200010A001E0DDF80CA0A88900F4004040B149
:101F30000AEBCA0000EB0A1031684900B0FBF1F867
:101F400007E00AEBCA0000EB0A1031688900B0FB19
:101F5000F1F86420B8FBF0F004012009642101FBD2
:101F60001089A88900F4004040B1322000EBC9007C
:101F7000B0FBF1F000F00700044308E0322000EB72
:101F800009106421B0FBF1F000F00F0004432C8134
:101F900006B0BDE8F087000000380140014688889F
:101FA000C0F30800704700BFFEE702E008C8121F38
:101FB00008C1002AFAD170477047002001E001C132
:101FC000121F002AFBD1704718B50446002000906C
:101FD00006E04FF47A7000F007F80098401C00907B
:101FE0000098A042F5D318BD0CB5002101910BE07B
:101FF0000B21009102E00099491E009100990029EF
:10200000F9D10199491C019101998142F0D30CBD8C
:102010004FF4A06101F007020D4B18684FF6FF0363
:1020200018400C4B034343EA0220094B186000BFE1
:10203000FFF7CEFBFFF79AFAFEF71CFDFEF73CFB1D
:10204000FFF7D2F95A20FFF7B1FB00BFFEE700000F
:102050000CED00E00000FA057820000800000020E8
:1020600028000000AA1F0008A02000082800002067
:1020700028040000BA1F000858007D005A00000024
:10208000102736001A00FA00C80000000000010204
:1020900003040102030406070809020406080000FD
:04000005080000ED02
:00000001FF
