:020000040800F2
:100000000004002005010008730200086B020008CC
:100010006F0200084D0100082507000800000000DD
:100020000000000000000000000000009103000834
:100030005301000800000000750200087D0400085C
:100040001F0100081F0100081F0100081F01000810
:100050001F0100081F0100081F0100081F01000800
:100060001F0100081F0100081F0100081F010008F0
:100070001F0100081F0100081F01000851010008AE
:100080001F0100081F0100081F0100081F010008D0
:100090001F0100081F0100081F0100081F010008C0
:1000A0001F0100081F0100081F0100081F010008B0
:1000B0001F0100081F0100081F0100081F010008A0
:1000C0001F0100081F0100081F0100081F01000890
:1000D0001F0100081F0100081F0100081F01000880
:1000E0001F0100081F0100081F010008DFF810D0E1
:1000F00000F01AF80048004791070008AFF30080AD
:10010000000400200648804706480047FEE7FEE757
:10011000FEE7FEE7FEE7FEE7FEE7FEE7FEE7FEE7B7
:1001200081040008ED000008064C074D06E0E06879
:1001300040F0010394E8070098471034AC42F6D32E
:10014000FFF7D8FFE0070008F007000800BFFEE750
:10015000704770472DE9F041024600250026002037
:1001600000230024002791F803C00CF00F0591F83C
:1001700003C00CF0100CBCF1000F03D091F802C0CA
:100180004CEA050591F800C0BCF1000F31D01468AD
:1001900000202BE04FF0010C0CFA00F3B1F800C086
:1001A0000CEA03069E4220D183004FF00F0C0CFA9C
:1001B00003F7BC4305FA03FC4CEA040491F803C0BE
:1001C000BCF1280F06D14FF0010C0CFA00FCC2F86C
:1001D00014C00AE091F803C0BCF1480F05D14FF0FC
:1001E000010C0CFA00FCC2F810C0401C0828D1D346
:1001F0001460B1F800C0BCF1FF0F34DD546800207A
:100200002EE000F1080C4FF0010808FA0CF3B1F8E9
:1002100000C00CEA03069E4221D183004FF00F0C70
:100220000CFA03F7BC4305FA03FC4CEA040491F80A
:1002300003C0BCF1280F05D100F1080C08FA0CF836
:10024000C2F8148091F803C0BCF1480F07D100F147
:10025000080C4FF0010808FA0CF8C2F81080401C96
:100260000828CED35460BDE8F08100BFFEE700BF90
:10027000FEE770477047000029B1064AD269024381
:10028000044BDA6104E0034AD2698243014BDA612C
:10029000704700000010024029B1064A92690243EB
:1002A000044B9A6104E0034A92698243014B9A61CC
:1002B000704700000010024010B54FF47A71C80674
:1002C00000F0D9F94FF47A71C80600F0D6F910BDE4
:1002D00010B500F003F8FFF7EFFF10BD00B589B0CF
:1002E00001210846FFF7C8FF01210420FFF7D4FFD2
:1002F00018208DF823000220ADF8200003208DF88F
:10030000220008A92148FFF725FF0420ADF82000AE
:1003100008A91E48FFF71EFF4FF0804000F0ECF8E0
:100320000020ADF81A00ADF8160040F2CF70ADF81D
:1003300018004720ADF8140005A94FF0804000F0E8
:100340009FF96020ADF804000020ADF80C000120FA
:10035000ADF806004FF4FA60ADF80A0001A9800676
:1003600000F0D0F801A94FF0804000F02BF90821EF
:10037000C80600F019F90821C80600F073F9012138
:10038000880700F0ADF809B000BD0000000801408A
:10039000704710B500F002F810BD00000CB5002049
:1003A000019000903348006840F480303149086083
:1003B00000BF3048006800F4003000900198401CF5
:1003C0000190009818B90198B0F5A06FF1D12948B3
:1003D000006800F4003010B10120009001E000201E
:1003E00000900098012843D12348006840F0100095
:1003F000214908600846006820F0030008600846AC
:10040000006840F0020008601A48406819494860D6
:100410000846406848600846406840F4806048608C
:100420000846406820F47C1048600846406840F464
:10043000E81048600846006840F08070086000BF1F
:100440000C48006800F000700028F9D009484068A6
:1004500020F00300074948600846406840F0020069
:10046000486000BF0348406800F00C000828F9D13C
:100470000CBD000000100240002002407047000048
:1004800010B51348006840F00100114908600846A3
:100490004068104908400E494860084600680E4907
:1004A00008400B4908600846006820F48020086076
:1004B0000846406820F4FE0048604FF41F00886042
:1004C000FFF767FF4FF000600449086010BD0000AF
:1004D000001002400000FFF8FFFFF6FE08ED00E00C
:1004E00021B1028842F00102028004E002884FF646
:1004F000FE731A400280704701894FF6F87211406E
:100500000181704770B5002400220023058C4FF64E
:10051000EF7635400584028C8388048B48F6FF759E
:100520002C404FF6FF452C400D884FF6FF7606EA2B
:1005300005252C434FF6DF752A400D8906EA05157F
:100540002A434D8806EA05152A43154DA84202D0D4
:10055000144DA8421DD14FF67F752A404D894FF6A4
:10056000FF7606EA05152A434FF6BF752A408D88A7
:1005700006EA05152A434FF6FF352B404FF2FF756B
:100580002B408D8906EA85052B43CD8906EA850532
:100590002B4383800483CD880587028470BD0000CF
:1005A000002C0140003401400A460021018B4FF22B
:1005B000FF7319404FF6FF7303EA022319430183C7
:1005C0007047000070B5002400220023058C4FF610
:1005D000FF6635400584028C8388848B4FF68F75C7
:1005E0002C404FF6FC752C400D882C434FF6FF55E0
:1005F0002A400D894FF6FF7606EA05252A434D88E5
:1006000006EA05252A43154DA84202D0144DA842FA
:100610001DD14FF2FF752A404D894FF6FF7606EA4D
:1006200005252A434FF6FF352A408D8806EA052521
:100630002A434EF6FF752B404DF6FF752B408D89F2
:1006400006EA05152B43CD8906EA05152B43838061
:100650008483CD888587028470BD0000002C014012
:10066000003401400A460021818B4FF6F773194090
:10067000114381837047018770478187704700006D
:10068000002202881D4B98420ED01D4B98420BD081
:10069000B0F1804F08D01B4B984205D01A4B9842BE
:1006A00002D01A4B984204D14FF68F731A404B88F0
:1006B0001A43174B984207D0164B984204D04FF676
:1006C000FF431A40CB881A4302808B8883850B88AE
:1006D00003850A4B98420BD0094B984208D00E4B29
:1006E000984205D00D4B984202D00D4B984201D153
:1006F0000B7A03860123838270470000002C01409F
:10070000003401400004004000080040000C00409C
:10071000001000400014004000400140004401402F
:100720000048014000BFFEE702E008C8121F08C1F0
:10073000002AFAD170477047002001E001C1121F62
:10074000002AFBD1704718B504460020009006E04F
:100750004FF47A7000F007F80098401C0090009861
:10076000A042F5D318BD0CB5002101910BE00B217F
:10077000009102E00099491E009100990029F9D1E9
:100780000199491C019101998142F0D30CBD0000EF
:100790004FF4A06101F007020F4B18684FF6FF03FA
:1007A00018400E4B034343EA02200B4B186000BF76
:1007B000FFF78EFD4FF47A70FFF7C5FF40F24C4112
:1007C0004FF08040FFF757FF40F24C414FF0804020
:1007D000FFF753FF00BFFEE70CED00E00000FA0555
:1007E000F00700080000002000040000380700089F
:04000005080000ED02
:00000001FF
