:020000040800F2
:100000004004002005010008B90600087706000832
:10001000B506000895030008EB1500080000000075
:10002000000000000000000000000000550D000866
:10003000D5040008000000004B070008C10F0008AD
:100040001F0100081F0100081F0100081F01000810
:100050001F0100081F0100081F0100081F01000800
:100060001F0100081F0100081F0100081F010008F0
:100070001F0100081F0100081F0100081F010008E0
:100080001F0100081F0100081F0100081F010008D0
:100090001F0100081F0100081F0100081F010008C0
:1000A0001F0100081F0100081F0100081F010008B0
:1000B0001F0100081F0100081F0100081F010008A0
:1000C0001F0100081F0100081F0100081F01000890
:1000D0001F0100081F0100081F010008D5130008B8
:1000E0001F0100081F0100081F010008DFF810D0E1
:1000F00000F032F9004800470D160008AFF3008009
:10010000400400200648804706480047FEE7FEE717
:10011000FEE7FEE7FEE7FEE7FEE7FEE7FEE7FEE7B7
:10012000C50F0008ED000008F0B480EA0102D40F0A
:100130004200B2EB410F02D20246084611464A0085
:1001400042D0C30DDDB2C1F3C752AD1A202D35DA4E
:10015000C1F3160141F4000204B15242C5F1200678
:1001600002FA06F12A411044B3EBD05F23D0C4B1A8
:10017000012DA0EBC35009DCF0BC4FF0004202EAB5
:10018000C352DBB200F5000000F0B8B8400000F147
:10019000807000EBC350A0F1807040EAD17049003C
:1001A00009E0490841EAC071A0EBC35000F5000026
:1001B000400800EBC350F0BC00F097B86142012248
:1001C00002EB4101001BF6E7F0BC704781F00041F3
:1001D000AAE780F00040A7E780EA010210B502F02C
:1001E0000043400022D04A001FD0010E01EB1261F3
:1001F000C0F35600C2F3560240F4000042F400027D
:10020000A0FB022000047F39140400D0401C50EAF7
:10021000124001D44000491EC2B20C0604EBD010BB
:10022000401C4008802A02D003E0002010BD20F0CE
:100230000100002900DA0020184310BD30B480EA24
:10024000010202F0004530F0004221F0004013D0DE
:1002500090B1C30DD40DC2F31601C0F31600E41A19
:1002600041F4000140F400027D34914201D3641C4A
:1002700000E04900002C02DA30BC002070474FF447
:1002800000000023914201D3891A034340084FEA3A
:100290004101F7D151B1914202D14FF0004105E047
:1002A00002D24FF0010101E06FF0010103EBC450F5
:1002B000284430BC00F019B896230022114600F003
:1002C0001DB820F00040C10DC0F3160040F400003E
:1002D0007F2901DA00207047962903DCC1F19601DD
:1002E000C84070479639884070470029A8BF7047BA
:1002F000401C490008BF20F00100704710B4B0FA5C
:1003000080FC00FA0CF050EA010404BF10BC7047F6
:1003100049B1CCF1200421FA04F411FA0CF118BF10
:10032000012121430843A3EB0C01CB1D4FEA0061DF
:100330004FEA102042BF002010BC704700EBC350B2
:1003400010440029A4BF10BC7047401C490008BFDE
:1003500020F0010010BC7047064C074D06E0E06835
:1003600040F0010394E8070098471034AC42F6D3FC
:10037000FFF7C0FE4C1600086C16000810B50021EF
:10038000034800F0CCFF0021014800F0CAFF10BD77
:10039000002C014000BFFEE700B589B00121042018
:1003A00000F054FA0121C80200F050FA18208DF82C
:1003B000230003208DF822004FF47060ADF8200078
:1003C00008A92C4800F0CCF80020ADF81A00ADF8D0
:1003D000160044F61F60ADF818004720ADF8140071
:1003E00000208DF81C0005A9234800F0A1FF224839
:1003F00000F033FE6020ADF804000020ADF80C00E2
:100400000120ADF806000002ADF810000020ADF8A4
:1004100012000820ADF80E000020ADF8080001A978
:10042000154800F021FE01A9134800F073FE01A950
:10043000114800F0CFFE01A90F4800F025FF082168
:100440000D4800F05DFE08210B4800F0B5FE0821C4
:10045000094800F00FFF0821074800F053FF012171
:10046000054800F0DFFD0121034800F0E7FD09B079
:1004700000BD000000080140002C014021B10268CD
:1004800042F00102026004E002684FF6FE731A4077
:100490000260704710B50022026847F6F0739A4375
:1004A0000C6A8B6823430C6923434C6923438C6992
:1004B0002343CC6923434C6A23438C6A23431A4366
:1004C0000260CB6843600B6883604B68C36010BDFB
:1004D000416070477047000000B585B001210820D9
:1004E00000F0B4F90121880400F0A0F904208DF88F
:1004F00003004002ADF8000003208DF802006946B9
:10050000144800F02DF8144801900020ADF81000B8
:100510000420ADF80E000002ADF80C000120ADF88B
:100520000A000020ADF8080001A90C4800F0ECFF1B
:10053000012240F22441094800F0C0FF0121074890
:1005400000F07DFF01224021044800F084FF05B047
:1005500000BD0000000C0140A086010000480040E2
:100560002DE9F0410246002500260020002300244A
:10057000002791F803C00CF00F0591F803C00CF0B0
:10058000100CBCF1000F03D091F802C04CEA050535
:1005900091F800C0BCF1000F31D0146800202BE0AE
:1005A0004FF0010C0CFA00F3B1F800C00CEA03069E
:1005B0009E4220D183004FF00F0C0CFA03F7BC438E
:1005C00005FA03FC4CEA040491F803C0BCF1280FBF
:1005D00006D14FF0010C0CFA00FCC2F814C00AE07E
:1005E00091F803C0BCF1480F05D14FF0010C0CFA93
:1005F00000FCC2F810C0401C0828D1D31460B1F828
:1006000000C0BCF1FF0F34DD546800202EE000F183
:10061000080C4FF0010808FA0CF3B1F800C00CEA1E
:1006200003069E4221D183004FF00F0C0CFA03F712
:10063000BC4305FA03FC4CEA040491F803C0BCF186
:10064000280F05D100F1080C08FA0CF8C2F8148044
:1006500091F803C0BCF1480F07D100F1080C4FF02E
:10066000010808FA0CF8C2F81080401C0828CED304
:100670005460BDE8F08100BFFEE7000010B50446FD
:100680002146044800F04FFE0021024800F04DFED4
:1006900010BD0000002C014010B5044600210448A4
:1006A00000F041FE2146024800F03FFE10BD000070
:1006B000002C014000BFFEE77047000070B500212C
:1006C00000230F22C47804B3154C246804F4E064BA
:1006D000C4F5E064210AC1F10403CA40447804FA75
:1006E00003F184781440214309010E4C0678A1558A
:1006F000047804F01F050124AC4005786D11AD00AD
:1007000005F1E025C5F8004109E0047804F01F0573
:100710000124AC40044D0678761145F8264070BDA2
:100720000CED00E000E400E080E100E008B52720E7
:100730008DF8000001208DF803008DF801008DF880
:1007400002006846FFF7BAFF08BD704700B589B0E0
:100750000121022000F06AF80121042000F076F85F
:100760000121082000F072F818208DF82300802065
:10077000ADF8200003208DF8220008A92048FFF7DB
:10078000EFFE18208DF823000120ADF82000032093
:100790008DF8220008A91B48FFF7E2FE1A4800F076
:1007A0005CFC0020ADF81A00ADF8160044F61F609E
:1007B000ADF818004720ADF8140005A9124800F064
:1007C000B7FD6020ADF804000020ADF80C0001205A
:1007D000ADF8060001A90C4800F046FC01A90A4842
:1007E00000F0F8FC0821084800F08AFC08210648BF
:1007F00000F040FD0121044800F014FC09B000BDE8
:1008000000080140000C01400004004029B1064AE4
:1008100052690243044B5A6104E0034A526982431D
:10082000014B5A61704700000010024029B1064A8E
:10083000D2690243044BDA6104E0034AD26982437D
:10084000014BDA61704700000010024029B1064AEE
:1008500092690243044B9A6104E0034A926982431D
:10086000014B9A61704700000010024030B5002132
:100870000022002400232D4D6D6805F00C0121B1EC
:10088000042905D0082923D105E0294D056022E07F
:10089000274D05601FE0254D6D6805F47012234D4E
:1008A0006D6805F48034022505EB92421CB9214D98
:1008B000554305600BE01D4D6D6805F400351DB115
:1008C0001C4D5543056002E0194D5543056002E09B
:1008D000174D056000BF00BF144D6D6805F0F001B5
:1008E0000909154D6B5C0568DD4045600F4D6D686D
:1008F00005F4E061090A104D6B5C4568DD408560D8
:100900000A4D6D6805F46051C90A0B4D6B5C456872
:10091000DD40C560054D6D6805F44041890B074D0C
:100920006B5CC568B5FBF3F5056130BD0010024096
:1009300000127A0000093D00020000201200002091
:100940002DE9F0476D48407A01284CD16B4800886A
:10095000B0F5806F41D069480088A0F5806000281C
:1009600019DD66480088A0F5806087B23846FFF739
:10097000A3FC82466249FFF761FC81466149FFF7AB
:100980002BFC8046FFF79DFC5A3084B25E48048001
:10099000204600F0E1F959480088C0F58060002841
:1009A0001FDD56480088C0F5806087B23846FFF7E3
:1009B00083FC82465249FFF741FC81465149FFF7CB
:1009C0000BFC8046FFF77DFCC0F15A0084B24E4814
:1009D0000480204600F0C0F903E04B48008800F096
:1009E000BBF9BDE8F0874548C088B0F5806F3BD0C3
:1009F0004248C088A0F5806000281ADD3F48C088C2
:100A0000A0F5806086B23046FFF756FC82463C492E
:100A1000FFF714FC81463D49FFF7DEFB8046FFF7F8
:100A200050FC85B22846FFF729FE284600F00AF957
:100A30001CE03248C088C0F5806086B23046FFF7BF
:100A40003BFC82462E49FFF7F9FB81462F49FFF711
:100A5000C3FB8046FFF735FC85B22846FFF71CFE36
:100A6000284600F0FDF801E0FFF788FC23480088E5
:100A7000B0F5806F3DD021480088A0F58060002847
:100A800017DD1E480088A0F5806087B23846FFF762
:100A900013FC82461A49FFF7D1FB81461949FFF73B
:100AA0009BFB8046FFF70DFC5A3084B2204600F0D5
:100AB00053F912480088C0F5806000281CDD0F48FB
:100AC0000088C0F5806087B23846FFF7F5FB8246A4
:100AD0000B49FFF7B3FB81460A49FFF77DFB8046D0
:100AE000FFF7EFFBC0F15A0084B2204600F034F962
:100AF00002E0582000F030F900BF72E71800002033
:100B0000000025440000B4420000002000409C4644
:100B100010B5FFF7E1FC00F069F8FFF707FE10BD24
:100B2000304800782F49497840EA0120C0F30A0094
:100B30002D4908802B484078C0102A49897840EA1E
:100B40004110C0F30A002849488026488078801167
:100B50002449C97840EA81002249097940EA812084
:100B6000C0F30A00204988801E48007940101D49C2
:100B7000497940EAC110C0F30A001B49C8801948EE
:100B8000407900118008087216484079C0F30110BE
:100B90004872144880791349C97940EA012000B2AB
:100BA000114948810F48007A0E49497A40EA0120EC
:100BB00001B20D4881810B48807A0A49C97A40EA1E
:100BC000012001B20848C1810648017B0648017432
:100BD0000448417B044841740248807B02494882B2
:100BE000704700002C0000201800002000B58BB0DA
:100BF00001210846FFF70AFE13200390002002900F
:100C00000A900D4801900020079080200590202038
:100C100008900A4800900020069004904FF440503D
:100C2000099069460648FFF735FC01210448FFF7A3
:100C300025FC0BB000BD00002C0000200448004043
:100C40003000024010B504460021044800F067FB64
:100C50002146024800F065FB10BD0000002C014059
:100C600010B504462146044800F059FB0021024813
:100C700000F057FB10BD0000002C014010B54FF4F0
:100C80007A71C80600F04DFB4FF47A71C80600F087
:100C90004AFB10BD10B500F003F8FFF7EFFF10BDE1
:100CA00000B589B001210846FFF7C0FD01210420ED
:100CB000FFF7CCFD18208DF823000220ADF82000AE
:100CC00003208DF8220008A92148FFF749FC0420E1
:100CD000ADF8200008A91E48FFF742FC4FF0804005
:100CE00000F0BBF90020ADF81A00ADF8160040F294
:100CF000CF70ADF818004720ADF8140005A94FF0EB
:100D0000804000F015FB6020ADF804000020ADF835
:100D10000C000120ADF806004FF4FA60ADF80A00AF
:100D200001A9800600F0F6F901A94FF0804000F01B
:100D300051FA0821C80600F03FFA0821C80600F061
:100D400099FA0121880700F06DF909B000BD000093
:100D5000000801407047000010B5044622460121FA
:100D6000014800F0EFF810BD0004004010B500F09D
:100D700001F810BD0CB500200190009033480068C8
:100D800040F480303149086000BF3048006800F40A
:100D9000003000900198401C0190009818B901980B
:100DA000B0F5A06FF1D12948006800F4003010B10F
:100DB0000120009001E0002000900098012843D11C
:100DC0002348006840F01000214908600846006888
:100DD00020F0030008600846006840F00200086048
:100DE0001A48406819494860084640684860084603
:100DF000406840F4806048600846406820F47C10F9
:100E000048600846406840F4E810486008460068BA
:100E100040F08070086000BF0C48006800F000706F
:100E20000028F9D00948406820F0030007494860CD
:100E30000846406840F00200486000BF0348406830
:100E400000F00C000828F9D10CBD00000010024091
:100E50000020024010B500F001F810BD00B589B0C7
:100E600001210220FFF7E2FC01210846FFF7DEFC2A
:100E700001210420FFF7EAFC01210820FFF7E6FC2E
:100E800018208DF823004020ADF8200003208DF8B5
:100E9000220008A92848FFF763FB0220ADF82000D4
:100EA00008A92648FFF75CFB0120ADF8200008A93F
:100EB0002148FFF755FB224800F0CFF84FF0804063
:100EC00000F0CBF80020ADF81A00ADF8160044F69B
:100ED0001F60ADF818004720ADF8140005A91848A8
:100EE00000F026FA05A94FF0804000F021FA6020BA
:100EF000ADF804000020ADF80C000120ADF80600AC
:100F00004FF4FA70ADF80A0001A90D4800F0ACF8F2
:100F100001A90B4800F0B8F901A94FF0804000F09A
:100F2000A3F80121064800F07DF80121880700F0B0
:100F300079F809B000BD000000080140000C014034
:100F4000000400402DE9F05F06460C461546284691
:100F5000FFF7B2F983461749FFF770F98246164941
:100F6000FFF73AF981461549FFF7DEF88046FFF7AB
:100F7000A8F987B2012C06D0022C09D0032C0CD082
:100F8000042C14D10EE03946304600F0C8F90EE0CA
:100F90003946304600F0C5F909E03946304600F0E0
:100FA000C2F904E03946304600F0BFF900BF00BF87
:100FB000BDE8F09F000034430000FA440000FA430B
:100FC0007047000010B51348006840F00100114957
:100FD000086008464068104908400E4948600846C5
:100FE00000680E4908400B4908600846006820F474
:100FF000802008600846406820F4FE0048604FF4F6
:101000001F008860FFF7B2FE4FF0006004490860DF
:1010100010BD0000001002400000FFF8FFFFF6FEC8
:1010200008ED00E021B1028842F00102028004E0F4
:1010300002884FF6FE731A400280704731B1B0F853
:10104000442042F40042A0F8442005E0B0F84420D7
:10105000C2F30E02A0F84420704701894FF6F872DF
:10106000114001817047000070B500240022002368
:10107000058C4FF6FE7635400584028C8388048B00
:101080004FF68F752C40B51E2C400D882C43751ED5
:101090002A400D892A434D882A43144DA8420BD07B
:1010A000134DA84208D0134DA84205D0124DA842B6
:1010B00002D0124DA84213D14FF6F7752A404D8940
:1010C0002A434FF6FB752A408D882A434FF6FF6569
:1010D0002B404FF6FF552B408D892B43CD892B4359
:1010E00083800483CD888586028470BD002C0140F6
:1010F00000340140004001400044014000480140EC
:101100000A460021018B4FF6F77319401143018302
:101110007047000070B5002400220023058C4FF6B4
:10112000EF7635400584028C8388048B48F6FF7582
:101130002C404FF6FF452C400D884FF6FF7606EA0F
:1011400005252C434FF6DF752A400D8906EA051563
:101150002A434D8806EA05152A43154DA84202D0B8
:10116000144DA8421DD14FF67F752A404D894FF688
:10117000FF7606EA05152A434FF6BF752A408D888B
:1011800006EA05152A434FF6FF352B404FF2FF754F
:101190002B408D8906EA85052B43CD8906EA850516
:1011A0002B4383800483CD880587028470BD0000B3
:1011B000002C0140003401400A460021018B4FF20F
:1011C000FF7319404FF6FF7303EA022319430183AB
:1011D0007047000070B5002400220023058C4FF6F4
:1011E000FF6635400584028C8388848B4FF68F75AB
:1011F0002C404FF6FC752C400D882C434FF6FF55C4
:101200002A400D894FF6FF7606EA05252A434D88C8
:1012100006EA05252A43154DA84202D0144DA842DE
:101220001DD14FF2FF752A404D894FF6FF7606EA31
:1012300005252A434FF6FF352A408D8806EA052505
:101240002A434EF6FF752B404DF6FF752B408D89D6
:1012500006EA05152B43CD8906EA05152B43838045
:101260008483CD888587028470BD0000002C0140F6
:10127000003401400A460021818B4FF6F773194074
:10128000114381837047000070B5002200230024C1
:10129000058C4EF6FF7635400584038C8488828B5E
:1012A00048F6FF752A404FF6FF452A400D884FF655
:1012B000FF7606EA05252A434DF6FF752B400D897A
:1012C00006EA05352B434D8806EA05352B430B4DC1
:1012D000A84202D00A4DA84208D14BF6FF752C4017
:1012E0008D894FF6FF7606EA85152C43848082832C
:1012F000CD88A0F84050038470BD0000002C014050
:10130000003401400A460021818B4FF2FF731940DF
:101310004FF6FF7303EA02231943818370478186E6
:1013200070470187704781877047A0F84010704769
:10133000002202881D4B98420ED01D4B98420BD0C4
:10134000B0F1804F08D01B4B984205D01A4B984201
:1013500002D01A4B984204D14FF68F731A404B8833
:101360001A43174B984207D0164B984204D04FF6B9
:10137000FF431A40CB881A4302808B8883850B88F1
:1013800003850A4B98420BD0094B984208D00E4B6C
:10139000984205D00D4B984202D00D4B984201D196
:1013A0000B7A03860123838270470000002C0140E2
:1013B000003401400004004000080040000C0040E0
:1013C0000010004000140040004001400044014073
:1013D0000048014010B540F224410F4800F044F8A5
:1013E000012817D100210D48FFF748F8FFF798FBB7
:1013F000FFF7A6FA13210948FFF76AF80121074809
:10140000FFF73CF8044800F0EBF840F224410248B2
:1014100000F006F810BD0000004800403000024017
:1014200010B50022002340F66A14A14200D100BF8B
:101430000A1201249440A3B2DC43048010BD21B100
:10144000828942F40052828104E082894DF6FF7362
:101450001A40828170471AB1838A0B43838202E06B
:10146000838A8B438382704770B502460024002331
:101470000025002040F66A16B14200D100BFC1F33A
:10148000421501F01F03012606FA03F3012D02D1D4
:101490009689334006E0022D02D1168A334001E0DE
:1014A000968A33400C12012606FA04F4168834405A
:1014B00013B10CB1012000E0002070BDF0B503466F
:1014C000002400260025002040F66A17B94200D10A
:1014D00000BF1846C1F3421401F01F06012707FAA6
:1014E00006F5012C01D10C3004E0022C01D11030A2
:1014F00000E014301AB107682F43076002E0076864
:10150000AF430760F0BD00002DE9F04786B0054607
:101510000E460024A24600BFA1460027B08900B1B4
:1015200000BF2F462C8A4CF6FF700440F08804431D
:101530002C82AC894EF6F3100440B0883189084300
:10154000718908430443AC81AC8A4FF6FF400440E4
:10155000B0890443AC8201A8FFF788F91F4887428D
:1015600002D1DDF810A001E0DDF80CA0A88900F49C
:10157000004040B10AEBCA0000EB0A103168490094
:10158000B0FBF1F807E00AEBCA0000EB0A10316883
:101590008900B0FBF1F86420B8FBF0F004012009E9
:1015A000642101FB1089A88900F4004040B1322079
:1015B00000EBC900B0FBF1F000F00700044308E0C5
:1015C000322000EB09106421B0FBF1F000F00F00B5
:1015D00004432C8106B0BDE8F087000000380140CC
:1015E00001468888C0F30800704700BFFEE702E0AC
:1015F00008C8121F08C1002AFAD17047704700209E
:1016000001E001C1121F002AFBD170474FF4A06115
:1016100001F007020B4B18684FF6FF0318400A4B06
:10162000034343EA0220074B186000BFFFF712FC98
:10163000FFF730FBFFF78AF8FEF7AEFEFFF768FA18
:1016400000BFFEE70CED00E00000FA056C16000894
:101650000000002018000000EE15000884160008A5
:101660001800002028040000FE1500085A000000A1
:101670000000010203040102030406070809020432
:041680000608000058
:04000005080000ED02
:00000001FF
